:020000041000EA
:1000000000B5324B212058609868022188439860DF
:10001000D860186158612E4B002199600221596106
:100020000121F02299502B49196001219960352056
:1000300000F044F80222904214D00621196600F024
:1000400034F8196E01211966002018661A6600F04E
:100050002CF8196E196E196E052000F02FF8012189
:100060000842F9D1002199601B49196000215960AB
:100070001A491B48016001219960EB211966A021F2
:10008000196600F012F800219960164914480160C1
:100090000121996001BC002800D000471248134993
:1000A000086003C880F30888084703B5996A0420EC
:1000B0000142FBD001200142F8D103BD02B5186610
:1000C0001866FFF7F2FF186E186E02BD00000240BE
:1000D000000000180000070000035F00212200005C
:1000E000F4000018222000A00001001008ED00E03C
:1000F00000000000000000000000000074B24E7A12
:1001000000200420F7010010C3010010C5010010F9
:10011000C1010010C1010010C1010010C101001097
:10012000C1010010C1010010C1010010C701001081
:10013000C1010010C1010010C9010010CB01001065
:10014000CD010010CD010010CD010010CD01001037
:10015000CD010010CD010010CD010010CD01001027
:10016000CD010010CD010010CD010010CD01001017
:10017000CD010010CD010010CD010010CD01001007
:10018000CD010010CD010010CD010010CD010010F7
:10019000CD010010CD010010CD010010CD010010E7
:1001A000CD010010CD010010CD010010CD010010D7
:1001B000CD010010CD010010CD010010CD010010C7
:1001C00000BE00BE00BE00BE00BE00BE00F04BF888
:1001D000103800BEF2EB887110590010345900102D
:1001E0003402001090A31AE700202149086006C8D5
:1001F00081F3088810471F48006800282FD10DA4FC
:100200000ECC002902D000F012F8F9E71A491B4A77
:10021000002000E001C19142FCD1194988471949E9
:1002200088471949884700BEFDE701C901C29A42C3
:10023000FBD3704734590010C00000209004002008
:10024000045D00100000042000000420045D001084
:1002500000100420001004200000000070470B482C
:1002600002F0CCF80047EFF30580C0B27047000001
:1002700008ED00E0000000D09004002090910020E4
:10028000CD1E001059030010BD1F0010575600006E
:1002900006005250ABB3605368570010060052502E
:1002A000861C030278570010060052505422A29D6B
:1002B0008457001005005250DE65F468045D00109C
:1002C000F8B5C046044B10B5002B03D003490448D1
:1002D00000E000BF10BDC046000000000C5100202F
:1002E000305600100022064B10B519201A6000F09D
:1002F00013FCD02380221B0692045A625A6110BD5F
:1003000004510020094A1368002B08D0013B1360F8
:100310005B0405D4D02380221B0692045A617047E7
:10032000D02380221B0692049A61F8E70451002032
:10033000084A10B51368002B07D1D0218024090684
:10034000A4048C611B18136010BDA02149028B42CC
:10035000FAD2F7E70451002010B505F003F800F0D9
:1003600089FA00F015FA04F079FC00F053F8FFF771
:10037000B9FF03F0D5F800F01DFA00F0DFF9FFF740
:10038000C1FFF6E700487047B456001000487047B8
:100390005056001070B5002826D0032831D81A4BCB
:1003A0008000C658300005F0E3F8C0B2011C1F28D9
:1003B00015D8C9B2002821D00023144DAA1CF05C26
:1003C0000133DCB210800232A142F8D8C0230131DF
:1003D000C9B249009B0019432800298070BD1F2124
:1003E000C9B20028E8D109E0084D074B022219687C
:1003F000A81C02F02BF9C1218900EDE70449034D47
:10040000EAE70020EAE7C046880300200009002050
:1004100002030000F0B5CE46474680B5062189B0FC
:10042000022000F01BFB0621032000F017FB002236
:10043000012103202D4C00F033FB00220121062076
:1004400000F02EFB062000F067FB2949200004F095
:10045000A1FF80235B02049303000F33C2011B033F
:100460001343244A244F13408022D205134305939B
:10047000C0231B0399460693204B214E079301236B
:10048000B851050098460222002120000093013354
:1004900004F0E4FF069B00210393039A194B20000C
:1004A00013404A46134306932A0004AB05F018F89C
:1004B000052001F001FF144901F0D2FFC823424694
:1004C00040080004E0502368934313432360BB5962
:1004D0001E321340B932A350D03A236C1A42FCD0DA
:1004E00009B0C0BCB946B046F0BDC04600002050BF
:1004F000C8560010FFFFFF9F385100206388114449
:1005000008400000FFFF00C040420F00234BF0B541
:10051000464698464246224BD821D2581F23D646FB
:100520004F460400093213401E4AC0B55350D0391B
:10053000136C1942FCD1002C2AD043461B68802042
:100540005E1C194B80219A4608239C46154B40029D
:1005500049002500082C00D908256A1E91465A68D2
:100560000242FCD14A461A615A680A42FCD11A6A10
:10057000120E072C02D867467F1B3A415746641B70
:10058000BA55721C002C01D01600E2E743461E60EB
:10059000E0BCBA46B146A846F0BDC046385100207E
:1005A00008400000000020503B510020F8B5060034
:1005B00008000C00FFF7BCFE154A164BD821D35893
:1005C0001F221340144A5350D039136C1942FCD0E7
:1005D000002C1CD0802280210F4B520249002500A4
:1005E000082C00D90825681E8446377858681042C0
:1005F000FCD16046186158681042FCD11F615868F0
:100600000842FCD1186A641B0136002CE7D1F8BD02
:10061000385100200840000000002050F8B54E4638
:100620004546DE4657460021E0B5404A404EB358A5
:10063000316040491D1F7418042B00D173E0D02392
:100640001B0698464023994608E0022B34D0032B22
:100650004CD05446052B5AD0002D1BD0E278A178FF
:1006600023796779120211431B040B433F061F4392
:10067000A31D9A466378063D012BE6D1FB1DDB08DE
:100680009B4639005046FFF791FF54465B465C4459
:10069000ED1AE3D1254B3268F550002A04D0002032
:1006A0007260311D04F0B2F900233360F0BCBB4628
:1006B000B246A946A046F8BD306800282DD00430C7
:1006C00021000622301801F0C1FF3368A0780633FC
:1006D0003360E37822791B020343607912041343E9
:1006E00000061843FFF712FF5446B5E7052001F056
:1006F000E3FDFA21890001F0B3FE390001F0B0FEFC
:10070000C8230D4A400800045446D050A4E743468D
:100710004A46002F05D05A629EE704230820336022
:10072000CEE79A6298E7B550BEE7C04604200000C5
:10073000385100200C2000000000205070B500202F
:1007400004F028F90F4C002808D10F4BE05803287B
:1007500003D90E4BE358834211D070BD0B4B0A4DA9
:100760009C466159402261440020611804F020F940
:100770000028F2D063599C4660446051E7E7FFF7D8
:100780004DFFEAE738510020042000000820000057
:1007900010B50221042000F061F90221052000F0CB
:1007A0005DF9E1210248490201F020FB10BDC0467D
:1007B00000800340102170B50E00244AA0B0936958
:1007C0001E4019423CD16B46581E013693691942AE
:1007D000FCD1136883559369194201D1402EF4D19D
:1007E000002003F053FE002814D06D4610AC76199B
:1007F0002B780122210000200135237003F0DCFE5C
:10080000B542F5D1002003F09DFE002003F056FE16
:10081000002801D120B070BD4022002010A903F0B3
:1008200059FE0028F6D0202110AC084A2018936900
:100830001942FCD1237801341360A042F7D1E9E7D3
:10084000002003F023FE0028DFD1E3E7008003400F
:100850004A7808788B7810B5C978120210431B04C7
:10086000034309060248194301F0C0FA10BDC0460F
:100870000080034070B5774C200002F0B9F823786F
:10088000180901001A01D2B230319F2B00D907316B
:10089000714B1009197000212170010030319F2A1D
:1008A00000D9D4E0597061780D0928000A01D2B24C
:1008B00030309F2900D9BFE0002198701009617085
:1008C000010030319F2A00D9B4E0D970A1780D0918
:1008D00028000A01D2B230309F2900D99FE00021C0
:1008E00018711009A170010030319F2A00D994E0DD
:1008F0005971E1780D0928000A01D2B230309F29E0
:1009000000D97FE0002198711009E17001003031B9
:100910009F2A00D974E0D97121790D0928000A01B4
:10092000D2B230309F2961D800211872100921718C
:10093000010030319F2A57D8597261790D0928007A
:100940000A01D2B230309F2944D800219872100990
:100950006171010030319F2A3AD8D972A1790D090D
:1009600028000A01D2B230309F2927D800211873FD
:100970001009A171010030319F2A1DD85973E17906
:100980000D0928000A01D2B230309F290AD800216F
:1009900098731009E171010037319F2A00D8073997
:1009A000D97370BD0021073098731009E1710100FF
:1009B00037319F2AF4D8F2E70731DFE7002107300B
:1009C00018731009A171010030319F2AD6D9F3E7BD
:1009D0000731C2E7002107309872100961710100E8
:1009E00030319F2AB9D9F3E70731A5E70021073055
:1009F000187210092171010030319F2A9CD9F3E748
:100A0000073188E70021073098711009E170010073
:100A100030319F2A00D87EE7F2E7073168E70021EE
:100A2000073018711009A170010030319F2A00D8D9
:100A30005EE7F2E7073148E70021073098701009B8
:100A40006170010030319F2A00D83EE7F2E707319C
:100A500028E7C0466491002078910020094A83006D
:100A600094464022634410B51C68C0006240C02414
:100A700014408022520113431C60034B9C46604487
:100A8000416010BD04C0014000400140034BC00064
:100A90009C46604443681F20184070470040014056
:100AA0000A4B80009C4604236044002901D00C239B
:100AB0000821002A00D10B00026853400C221A4082
:100AC00080235B01184302607047C04604C00140A8
:100AD000074BC0009C466044036809045940C0238A
:100AE0009B02194080235B01184301607047C04698
:100AF00004400140074BC0009C4660440368090362
:100B00005940C0239B01194080235B0118430160B9
:100B10007047C046044001400123D02283401206A2
:100B200093629361094A83009446402263441968A2
:100B3000C0004A40C0211140802252011343196075
:100B4000034B9C46052360444360704704C001404A
:100B500000400140EFF3108072B6034A1368002B87
:100B6000FCD0BFF35F8F70472C0100D0BFF35F8FC5
:100B70000022024B1A6080F3108870472C0100D0CD
:100B800070B5EFF3108C72B60D4D2B68002BFCD0B6
:100B9000BFF35F8F0724CB08C618C05C01230C404D
:100BA000A3401C000440034207D103433370BFF34A
:100BB0005F8F2C608CF3108870BD100001F000FA7C
:100BC0002C0100D0F8B54746CE46884680B5EFF3F5
:100BD000108C72B6214D2C68002CFCD0BFF35F8FB7
:100BE0009A422CD8D4080727055D0619012417401E
:100BF000BC402C421FD007210127894609E0D408B8
:100C0000055D06194C4639001440A1400C002942EC
:100C100011D001329342F2D201204042BFF35F8FE4
:100C200000220E4B1A608CF3108800280FDBC0BC2A
:100C3000B946B046F8BD2C4310003470EEE7BFF360
:100C40005F8F00232B608CF31088012040424346C5
:100C5000002BECD0089801F0B3F9C0462C0100D06D
:100C6000024B18688007C00F7047C04600C006409E
:100C70008023DB051868000F7047C0460021044B35
:100C8000044ABFF35F8F02C39342FAD17047C04654
:100C9000000100D0800100D0044A1078431CDBB270
:100CA000172B00D9102313707047C04698030020FB
:100CB00000B5054B83B00100009318221F230348A1
:100CC000FFF780FF03B000BDF0560010884C0020F5
:100CD00001238340002904D0034A1360034A1360B0
:100CE0007047034A1360FBE780E200E000E100E0A8
:100CF00080E100E0024B10309B688000C0587047D4
:100D000000ED00E070B50D00EFF3108672B60F4AEB
:100D10001368002BFCD0BFF35F8F0D4B10309B6826
:100D200084001B590B4A934203D09D4201D001F02D
:100D30005FF9074B9B681D51BFF35F8FBFF35F8F58
:100D40000022024B1A6086F3108870BD240100D087
:100D500000ED00E0CD010010F0B5DE4657464E46EE
:100D60004546E0B50C0083B0EFF3108A72B65A4ADC
:100D70001368002BFCD0BFF35F8F10229146814493
:100D80004A46564B96009B689D59554B98469D4246
:100D900005D0A54216D0534FEB1B2F2B14D94F4B28
:100DA0009B689D51BFF35F8FBFF35F8F00224A4B5B
:100DB0001A608AF3108803B0F0BCBB46B246A9465D
:100DC000A046F0BD1D00EAE7012383409B465A463A
:100DD000454B1B681A4000925A46444B1A60BFF3B9
:100DE0005F8FFFF740FA0190002803D0814501D0C2
:100DF00001F0FEF801232A009A4393689C4208D12F
:100E00005FE04B005B189B00FB189968A14211D072
:100E10001A00062151560029F3DA009B002B05D059
:100E20005A46334B1A60304B1A60B8E75A462F4B7C
:100E30001A60B4E706215956002921DB4A005018F0
:100E400080003C188046A0689860E079D871062040
:100E500020569871002824DBA488F81A640524150C
:100E600044440019E0240005400D240220439880EA
:100E70005218204B9200BF181A781970BA71CCE73B
:100E80000199002910D1FF3191711B4991801949B5
:100E90000A789A71194ADB1B5B415A43120D0A709A
:100EA000BBE7BD200002E2E7154A1649D21A083A0C
:100EB0005002400D01439980134952080A43DA80D9
:100EC000ABE70621515613000029B7DA019A002A30
:100ED000EAD14546DBE7C046240100D000ED00E042
:100EE000CD0100109C03002000E100E080E100E063
:100EF00080E200E08D91002000BDFFFFAAAA000063
:100F0000D603002000F0FFFF00F8FFFFF8B5012531
:100F100004000543FFF7A7F9EFF3108C72B6214ADE
:100F20001368002BFCD0BFF35F8F1F4E2100B76802
:100F30001E4A1F4B891A49414B431B0D59B283006E
:100F4000F858A8421CD00623D3568B421CD012233B
:100F5000D3568B4222D01E23D3568B4220D02A2335
:100F6000D35603208B4210D0124B1A781970A271FD
:100F7000BFF35F8F00220B4B1A608CF31088F8BD13
:100F8000B2680D48D050EFE7002043001B189B00CB
:100F9000D218FF239371094B9380E5E70120F4E712
:100FA0000220F2E7240100D000ED00E09C030020C5
:100FB000AAAA00008D910020CD01001000BDFFFF06
:100FC000054B064A1360064A136053609360D36072
:100FD00013615361936170478080808000E400E07A
:100FE00004E400E0024B9C466144890001607047C4
:100FF0004000003483680B4810B584466144624465
:10100000090112019A18591854684B6801209C4232
:1010100001D802D00020C0B210BD12680B689A42FD
:10102000F9D8F7E7FFFFFF0F0A4B1968EFF31080BD
:1010300072B60A68002AFCD0BFF35F8F1B68BFF34B
:101040005F8F00221A6080F3108840BF00200021CB
:101050007047C04650910020F8B557464E46454669
:10106000DE46E0B599460CAB1C780DAB1B7806004C
:1010700090469A460768002C11D1BC7B002C42D0C8
:1010800065003B682D19033D59194B78BB73002B44
:1010900000D1FB7300238B704B700B7004E0650074
:1010A0003B682D19033D5919B2682A4B94464246B4
:1010B000E3181B0163441A604A465A600A9A9A6010
:1010C0000B9ADA6000238B704B700B707B7B9B4616
:1010D000002B2BD022005946B8687B6898473A68A5
:1010E000002816D05B4658465B005B445519033B0D
:1010F000A870D118D35C002B00D06B705B460C70CD
:101100007B73A34513D0F0BCBB46B246A946A046AC
:10111000F8BD5B465B005B44033BD3189C705119E0
:10112000525D002A00D05A705B460B707C734246B9
:101130004B46307D00F0CEFB051E06D05346002BFB
:1011400003D12100306800F0E7FD0E9B002BDAD0C0
:101150001D70D8E7FFFFFF0FF0B5DE464E4657463D
:1011600045460023E0B58DB00A936B4B8200D358FF
:101170000B90994600239B464B46079300F030FBAB
:10118000079C06000F006268EFF3108572B61368C3
:10119000002BFCD022000794BFF35F8F2468637B91
:1011A0009946002B67D092685C4B90464B441B01DC
:1011B000984443461A685B6810001900801BB941C7
:1011C00000295FDD0B9800F085FB00230026984680
:1011D00000279A46079C6368BFF35F8F5A461A60E0
:1011E00085F310885346002B08D10028C6D10DB0D6
:1011F000F0BCBB46B246A946A046F0BD0A9B41469C
:1012000018024B461843D047089009916268EFF3E3
:10121000108572B61368002BFCD00794BFF35F8F64
:101220000899099A002A48DB114303D0079B1B69E0
:10123000002B5DD1079B1B68D97B002907D04A0092
:10124000521819688C4649466244033A51704A461E
:10125000DA734B46079A013BD168CA5C0132CA5423
:101260005B46079A13615368BFF35F8F5A461A6053
:1012700085F3108882E700230026984600279A46C7
:101280000020A7E7002901D100289BD100212000E0
:1012900000F0C4FC43461E685F689B68079A9A4644
:1012A0004346DB689846D3684B44013B1B780A935E
:1012B0001B020343136100208CE72369002BB9D084
:1012C00033003C005B1A94411A002300A74219D84E
:1012D0009F421BD059460491012103914946029136
:1012E00041460191514607980091FFF7B5FEB7E7D7
:1012F00000F076FA089A099B06000F0092197B41CC
:101300009942E5D901225242D317E3E79642E1D947
:1013100001225242D317DDE728510020FFFFFF0FC3
:10132000F8B557464E464546DE46E0B5404D814647
:101330008A466A68EFF3108872B61368002BFCD0F7
:10134000BFF35F8F2E68B47B002C39D06700336801
:101350003F19033FDB195A78B273002A00D1F273A8
:10136000A968344A8C464946A218120162441160A9
:1013700051465160304991600021D1609970597097
:101380001970737B9B46002B35D022001900B06882
:10139000736898473268002820D05B4658465B0047
:1013A0005B44D719033BB870D118D35C002B00D035
:1013B0007B705B460C7073735C451DD0002626E085
:1013C0006B68BFF35F8F1C6088F310880120404278
:1013D000F0BCBB46B246A946A046F8BD5B465B00E2
:1013E0005B44033BD3189C70D119D25D002A00D016
:1013F0005A705B460B7074734A465346287D00F062
:1014000069FA061EDAD02100286800F085FCEB6836
:101410001B19013B19786B68BFF35F8F00221A60BC
:1014200088F310880020002ED2D108022043CFE795
:10143000E4030020FFFFFF0F2910001010B5124C2D
:101440006368002B04D00A211048FFF7CBFD10BDC4
:1014500023000F4A1021206800F0FEFA032000F05C
:10146000B3F9032000F0A6FA03200A4900F0ECF9D2
:10147000FFF712FC084B9C46032360442375074B7F
:1014800080006060DC60DEE7E40300205091002013
:10149000F50F0010591100104000003428510020B1
:1014A00000487047E4030020F0B557464E464546D5
:1014B000DE46E0B585B0019310AB1B7806000393C0
:1014C00000239A46984600927268EFF3108972B62C
:1014D0001368002BFCD0BFF35F8F3568AC7B002C0A
:1014E00049D067002B683F19033FDB195A78AA736C
:1014F000002A00D1EA73B1684F4A8C4600980199DE
:10150000A21812016244106051600E9991600F9907
:10151000D16042469A705A701A706B7B9B46002BC2
:1015200045D022001900A8686B6898472A680028EF
:1015300030D05B4658465B005B44D719033BB8701C
:10154000D118D35C002B00D07B705B460C706B73A2
:101550005C452DD0F3681B19013B18787368BFF305
:101560005F8F42461A6089F310885346002B2CD1B6
:101570000002204307E07368BFF35F8F1C6089F3AC
:1015800010880120404205B0F0BCBB46B246A946D7
:10159000A046F0BD5B465B005B44033BD3189C70E8
:1015A000D119D25D002A00D05A705B460B706C7363
:1015B000307D009A019B00F08DF982460028C9D049
:1015C0002100306800F0A8FBC4E7039B002B30D05B
:1015D0000E9B00200F999847030004000D000B4359
:1015E00027D000290DDA0098019902000B00121B88
:1015F000AB41994213D818D000920193039B9A46AD
:1016000062E700F0EDF802000B00A4185D410094C1
:101610000195A94203D8F1D100998A42EED901235C
:101620005B42DC1700930194E8E700999142E3D90B
:10163000F5E70020A7E7C046FFFFFF0FF8B5CE464D
:10164000474680B506000C00FFF76AFE00280CDC58
:101650002D4B0020596A8C4203D89B6A0130B3425B
:1016600045D3C0BCB946B046F8BD20BF274D6A6817
:10167000EFF3108772B61368002BFCD0BFF35F8FB7
:101680002B68C1B29C465B7B8B4235D0FF23034065
:101690005A00914662461268994490464A4642442E
:1016A000033A9278002A1DD0EA68000A9046434423
:1016B000013B1B78C0B2834221D06B68BFF35F8FC0
:1016C00000221A6087F310880F4A0020536A9C4258
:1016D000C7D8926A0130B242C3D2E01A421E90418A
:1016E000C0B2BEE72B699842E7D12A61E5E7601AEC
:1016F000431E9841C0B2B4E7FF230340D4E76046DD
:1017000000F00AFBD9E7C04600400540E403002092
:10171000F0B5D6464F464646C0B5EFF305833F22A7
:10172000134018001038EFF3108C72B6204D2A6861
:10173000002AFCD0BFF35F8F0122110081401D4CB5
:10174000884661631C4917000E788A463100C14003
:101750000F400A4209D1BFF35F8F2F608CF31088CE
:10176000E0BCBA46B146A846F0BD14498200646A9E
:1017700051588C420FD3124BD25843469E43534686
:101780001E70BFF35F8F00232B608CF31088002A3C
:10179000E6D09047E4E70B4A9B00904643441A6822
:1017A0001A60BFF35F8F00232B608CF31088D7E79C
:1017B000280100D0004005408E9100205491002067
:1017C000784B0020D03F054010B50100024A034885
:1017D000FFF7D6F910BDC0460C5700108C910020C1
:1017E000034B596A0A00986A596A8A42FAD17047CB
:1017F0000040054070B504000D00124A536A1900FC
:10180000966A536A8B42FAD13000190024184D4170
:10181000AB4211D80ED02B000A494A6A9A42FCD337
:1018200007D1084A02E0516A994202D1916AA14265
:10183000F9D370BDA642EED9012301246442E51715
:101840005B42E9E70040054070B504000D00EFF38E
:10185000108672B61A4A1368002BFCD0BFF35F8F54
:10186000002D1BD02000FFF745FA164981420AD00F
:101870002000FFF747FA01212000FFF729FA012392
:10188000A340114A1360114BA400E550BFF35F8FD2
:1018900000220B4B1A6086F3108870BD0B4BA20020
:1018A000D5500122A2400A4920000B7893430B70C7
:1018B0000449FFF751FA00212000FFF709FAE5E794
:1018C000280100D01117001038600540784B002027
:1018D0008E910020F0B54F46D6464646C0B507006B
:1018E0002F4C616A0D00A66A616AA942FAD18B4247
:1018F00008D805D00120E0BCBA46B146A846F0BDE4
:10190000B242F7D9EFF3108A72B62648016800296F
:10191000FCD0BFF35F8F0125BD402349204C884692
:10192000097889462943C9B28C4641466046087009
:10193000391D1E48890065630A51B9000B50216AA0
:101940000020294219D0616A0800A66A616A8142B2
:10195000FAD18B4219D801D1B24216D8CC451DD04C
:101960000F4B1F201D625D6301230740BB40104ADF
:101970001E38136043464A461A70BFF35F8F002239
:10198000084B1A608AF31088B5E70020BFF35F8F19
:101990000022044B1A608AF31088ACE70120ECE7C0
:1019A00000400540280100D08E9100205491002075
:1019B00080E200E0EFF3108C72B60A490B68002B4E
:1019C000FCD0BFF35F8F01238340074A07481362AF
:1019D00002789A430270BFF35F8F00230B608CF391
:1019E00010887047280100D0004005408E910020EB
:1019F00070B5050014001600002915D00C00002A4F
:101A000012D080686B689847296800280ED0730050
:101A10009B196200033B1219CB18033A9C7088187B
:101A20008A5C002A15D10670200070BD63001B1966
:101A30007200033B9219CB18033A9E7088188A5C97
:101A4000002A02D104703400EEE75A7004703400AA
:101A5000EAE75A700670E7E730B583600023CCB23E
:101A600043730133047342608373C4730D000068D1
:101A7000012C06D9421C0133DBB2137003329C42A5
:101A8000F9D1FF2129404B00591800234018033891
:101A9000437030BDF8B5CE46474606000C0080B511
:101AA000002907D04D0003686D18033D5A19577877
:101AB000002F04D12000C0BCB946B046F8BD790063
:101AC000C919033988464344597889460021597019
:101AD000517073683A002100806898473368002885
:101AE00014D042469A18947059195B5D002B00D0AF
:101AF00053700F70270049463000FFF7CBFF3900C5
:101B000002003000FFF774FF0400D3E7424641466D
:101B10005D19AF709A185B5C002B00D06B7014706D
:101B2000E9E7C046F0B557464546DE464E46E0B5C5
:101B30000D006B0001685B19DF1E0400C85D83B0F7
:101B40000192CA1900284CD043001B18033BCB1844
:101B50005E78B446002E16D1019E002E3ED0E67B64
:101B6000002E04D073009B19CB18033B5D70E57306
:101B700000282FD10023537003B0F0BCBB46B246FF
:101B8000A946A046F0BD72006244033A89184A781B
:101B9000904600224A7091465A700100320020009F
:101BA000FFF726FF43468246002B07D05B002168E3
:101BB0004344033BCB185A78002A16D1424651467B
:101BC0002000FFF715FF2168019BCA19002BC6D121
:101BD0000028CFD043001B18033BCB18002199707D
:101BE000C8E7019B002BBAD1C4E750008018033826
:101BF0000918487883464846487058704146200086
:101C0000FFF7F6FE594680462000FFF743FF4146A6
:101C100002002000FFF7ECFE8046CFE7F0B5574604
:101C20004546DE464E46E0B583B00191457B040053
:101C30006B0000685B19DF1EC15DC21900294ED020
:101C40004B005B18033BC3185E78B446002E18D1D6
:101C5000019E002E40D0E67B002E04D073009B191D
:101C6000C318033B5D70E573002931D100232800C0
:101C70005370617303B0F0BCBB46B246A946A046A0
:101C8000F0BD72006244033A801842789046002208
:101C9000427091465A7020003200FFF7A9FE434679
:101CA0008246002B07D05B0021684344033BCB18DE
:101CB0005A78002A17D1424651462000FFF798FE75
:101CC000019B01002068C219002BC4D10029CDD08E
:101CD0004B005B18033BC31800209870C6E7019BBC
:101CE000002BB8D1C2E75000801803380918487893
:101CF000834648464870587041462000FFF778FEFA
:101D0000594680462000FFF7C5FE414602002000EC
:101D1000FFF76EFE8046CEE770B5040000292CD098
:101D2000437B8B422ED005684800401803382818A2
:101D30008278002A21D053009B18033BEA5CEE18FE
:101D40008A4202D11BE0002A08D053009B18033BB3
:101D5000EB185A788A42F6D142785A700023012251
:101D6000837043702000FFF7DDFE617B02002000DE
:101D7000FFF73EFE6073012000E0002070BD437855
:101D80003370EBE701221900FFF7CCFE60730120EE
:101D9000F4E7C04610B50400FEF77EFF0100200006
:101DA000FFF720F9FF232371BFF35F8F10BDC046FB
:101DB00010B50400FEF770FF01002000FFF712F9D4
:101DC000FF23A380BFF35F8F10BDC04610B5040092
:101DD0000120FEF76DFF044B9C46604480002060AC
:101DE000BFF35F8F10BDC04640000034F8B504005B
:101DF00006200D0000F060FA002844D02A4B2B4941
:101E0000E21853425A418023DB039C469205284B3B
:101E100062441A60274B1A6010008B689843FBD10C
:101E2000214B8021E3185A425341234A5B00490069
:101E30009952062000F040FA2900C00000F010FB83
:101E4000C30921D140270121260080256162A362B8
:101E500000232C36AD0135432B60062000F02CFA10
:101E60003900800000F0FCFA6023E26A53406E22E1
:101E70001A4080235B0133431A60104B2363102305
:101E80002B600D3BA364F8BD0D4A934203D9002398
:101E90000C4F0D49D8E77F221040013040089F01C8
:101EA00019003F180300CFE70080FCBF00C00040CE
:101EB00000E0004000F000406C91002001030000B1
:101EC000FEFF0000C0FF3F00FFFF00002C4B2D4A2B
:101ED00070B51A602C4A2D4B2D491A6014008B687E
:101EE0009C43FBD12B4D2C4EB54208D2013E761BB4
:101EF000B60808CD984723000134B342F9D100F069
:101F00007DF8264A214B1A60214A9368DB43DB01A6
:101F1000DD09002BF9D14022214B224C224E9A6739
:101F20005A671A67DA66B44208D223682000002B89
:101F300020D00834FFF73CFFB442F6D31B4E1C4CB4
:101F4000C022A168300000F081FBA660FEF796FE7B
:101F5000FFF736F8FFF772FA164C174EB44208D264
:101F6000013E361BB60808CC98472B0001359E422F
:101F7000F9D170BD0834FFF70DFFB442D5D3DDE7CA
:101F800000E00040BFCDFBFEFE7F3C0000F00040C3
:101F900000C000407804002088040020FFFFFF01FB
:101FA00000F00140700400207804002000000020B0
:101FB00000ED00E0880400209004002000BEFDE752
:101FC0000FB400B5084883B000F076FC049B002BEA
:101FD00007D005A91800019100F0F0F9034800F0BE
:101FE0006BFC00BEFDE7C0463057001040570010A4
:101FF00010B50148FFF7E4FF4457001030B50C203E
:1020000083B000F0B7F9FEF72BFE00280ED0944BFA
:10201000944A1A605A609A60DA601A615A619A6149
:10202000DA611A62904A5A6203B030BD8F4CA067E1
:1020300000F0A8F901228E4B1A60636C012BFCD1D1
:1020400003228C4B1A60894A936B012BFCD101331C
:102050000121894A89480093043300F033F90523AC
:10206000874A00930121874800F02CF9864B5A6873
:10207000FF2A02D8802252005A608022784C7D4B81
:1020800021691201804D1A60002905D0606900F0B5
:10209000E7F901300138FDD1E0217B4B02201A68BD
:1020A0001140802252012A431160196848400321DF
:1020B0000140116004219A681142FCD080228021E5
:1020C00092012A4309011160802252005A606F4B2D
:1020D00023616F4B5968FF2900D85A600321644A75
:1020E0006B4B116002399A681142FCD0E0201A68EB
:1020F0001040802252011A431060186848400321A2
:1021000001400220116062498A681042FCD080229E
:1021100092011343802212011A6080225D4B52000B
:102120004A6063615C4B5968FF2900D85A6080227D
:102130005A4BE1691201584D1A60002905D06069B7
:1021400000F08EF901300138FDD1E02252490B68D0
:102150001A4080235B012B431A60802380229B015D
:102160002B4312011A6080223E4B52004A60E36109
:102170004B4B5968FF2900D85A608022494B216A8D
:102180001201474D1A60002905D0606900F068F916
:1021900001300138FDD1E02241490B681A4080230B
:1021A0005B012B431A60802380229B012B43120189
:1021B0001A60802380225B004B602A4BD20223628C
:1021C000394B5968914200D25A608022374B616A7C
:1021D0001201354D1A60002905D0606900F040F900
:1021E00001300138FDD1E0222F490B681A408023CD
:1021F0005B012B431A60802380229B012B43120139
:102200001A608023DB024B60174B6362284B5A68CD
:10221000FF2A02D8802252005A608022254BA169F1
:102220001201234D1A60002905D0606900F018F9E9
:1022300001300138FDD1E0221D490B681A4080238E
:102240005B012B431A60802380229B012B431201E8
:102250001A6080235B004B600E4BA361E4E6C0462E
:102260008C4C0020006CDC021BB70000008000409A
:102270003CB0004030B00040002F68590080024060
:10228000008C864700C0024030800040001BB70031
:102290003C800040405973075480004054B00040D7
:1022A0006080004060B000406C8000406CB0004036
:1022B0004880004048B00040014B8000C058704743
:1022C0008C4C0020F0B5C646040000B50C209046AA
:1022D0001F000E0000F0C4F84101091A8D01691AAF
:1022E000C90009188901404600F0BAF8069B3F046E
:1022F0001A0323681743002B22DB1A4B1A4DE218EE
:1023000053425A4180235B019C461203174B62449F
:102310001A60174B1A601100AB689943FBD1C022B9
:10232000231D92011A4321232660A06013602368B5
:10233000002BFCDA0823E760136080BCB846F0BDD0
:102340003F2322681340B342D7D1A3681B051B0D5E
:102350008342D2D1EE22E368D2021340BB42CCD1F9
:10236000EBE7C0460040FDBF00C0004000E0004079
:1023700000F000408023024A9B000343D362704771
:1023800000800540AA23064A1B0113602F2305493C
:10239000D360054B19605368002BFCDA7047C046C8
:1023A0000040024000B0FA000060024010B5002872
:1023B00000D110BD00F030FAFBE7C04610B5094A65
:1023C0000300146884B0002C08D001220091064854
:1023D000524203A9A047012004B010BD00F06CFADE
:1023E0000020F9E700510020AD230010014804212E
:1023F000014B1847100400201D240010142310B5B1
:102400000100188804331B88984710BD162310B5A7
:102410000100188802331B88984710BDF8B547465D
:10242000CE4680B50F1E19D01423994604330400FC
:102430000025012698464B461888434621681B888C
:10244000984701C4431E9841013540420640AF42BF
:10245000F1D13000C0BCB946B046F8BD0126F8E75E
:10246000114A936F9B0813D210665166002905D05C
:10247000FFE7FFE7FFE7516F106F704704B50028D3
:1024800001D00020C04303F0B3F8002104BDC046D2
:10249000F0B5146E556E576F166FFFF7E5FF1466B3
:1024A000556657671667F0BD000000D0132370B55E
:1024B0001D78012D15D010DD1C48FFF7A7FF1C4C1F
:1024C00001008022200000F0C1F8022D06D019483A
:1024D000FFF794FF184B186070BD154C174BA364A1
:1024E000F5E7164B124C23606360A360E360236141
:1024F0006361A361E36123626362A362E3622363B6
:102500006363A363E36323646364A364E364236595
:102510006365A365E36523666366A366E366236775
:102520006367A367E367A364D1E7C0465344000031
:10253000900500204C3300004C91002041250010F4
:1025400007B5604601880A0A0230DF2AFAD1C9B20B
:10255000820804D3028840880004104300E0006829
:10256000014A5050039007BD90050020514343435A
:10257000C9188C46110C83B24B4310B4040C614350
:1025800092B280B2504362431C041B0C001910BC71
:1025900059411304120CC0185141614470470000A6
:1025A000132310B512481C78FFF730FF0100012CEF
:1025B0000AD003DD80220F4800F048F80E48FFF7EC
:1025C0001DFF0E4B186010BD0A4C5422200000F075
:1025D0003DF80B4B6365A365E36523666366A366FD
:1025E000E36623676367A367E3672362E361E5E765
:1025F00053460000900600204C3300004C91002010
:102600000526001007B5604601880A0A0230DF2A55
:10261000FAD1C9B2820804D302884088000410436A
:1026200000E00068014A5050039007BD900600206A
:1026300001480421014B1847200400201D240010EC
:10264000014B1B681847000020040020014B5B6809
:102650001847000020040020030010B508001100F6
:102660001B68984710BDC046F0B546464F46D64653
:10267000C0B5437C80460E001700002B46D0002AD0
:102680003FDD4B1E9946244B0125002400209A462D
:102690000DE04B461B5D0D3B5A425341325DDBB2B0
:1026A0000A2A0BD02B00013401359F421ADD002C81
:1026B000EFD14346325D1B7C0A2AF3D1002BF1D1C6
:1026C000A04204DA4346211A1B6830189847434653
:1026D00050461B6802219847013428002B00013521
:1026E0009F42E4DC874204DD4346391A1B683018F8
:1026F0009847F619013E33780D3B5A425341424602
:102700001374E0BCBA46B146A846F0BD0368110098
:1027100030009847F5E7C046B4570010F0B557466B
:102720004E464546DE461C00D023E0B51B061F681A
:10273000344B83B006000D00180001A991469A465B
:1027400002F05EFF8046002808D1019B7FB29F42C5
:1027500004D0504602F064FF012398466B1C03D15D
:10276000300002F005FF0500002C27D1264F274B33
:102770001C68002C18D04B46002B21D1244B9946C5
:1027800002E0E468002C0FD02368002BF9D04B4600
:102790001B68002B01D0A342F3D120002A00310096
:1027A000B847E468002CEFD14346002B25D103B095
:1027B000F0BCBB46B246A946A046F0BD154FD6E7D1
:1027C000134B99460A239B4602E0E468002CEBD0A9
:1027D0002368002BF9D04B461B68002B01D0A34285
:1027E000F3D12A0031002000B8475A466B4620003A
:1027F0001A7101A90122B847E7E7504602F0F0FE3E
:10280000D5E7C0467004002069260010F44C002073
:10281000F84C002059260010F0B5CE46474680B54A
:1028200083B06B46DE1CD02330701B061C681F4B28
:10283000804601A91800994602F0E2FE071E20D04A
:102840001B4B1C68002C28D01A4D02E0E468002CB9
:102850000FD02368002BF9D02B68002B01D0A342A6
:10286000F4D1200001223100FFF7FEFEE468002CC5
:10287000EFD1002F11D1404603B0C0BCB946B046DD
:10288000F0BD019B64B29C420BD0484602F0C8FEEA
:10289000074B01271C68002CD6D1484602F0A0FE49
:1028A000E9E7034B1C68002CCED1E4E7700400205C
:1028B000F44C0020F84C002070B5040002F058FEE3
:1028C00000230100050001222000FFF727FF084B2D
:1028D0001C68002C06D06368002B05D09847E4687C
:1028E000002CF8D1280070BDE468002CF3D1F9E782
:1028F000F44C00200A4A1368002B05D10CE01A00A2
:10290000DB680C32002B07D09842F8D1002902D1A5
:10291000C3681360C16070470029FCD01060FAE7FB
:10292000F44C0020F0B50D1E15DD0E4B0D271A6876
:102930000D4B4519D31859424B410C495B005E5E63
:1029400020210478A64207D093691942FCD10130B6
:102950001460A842F5D1F0BD93691942FCD117600B
:10296000F2E7C046749100200080FCBF6C9100200B
:1029700030B504000D1E12DD00201021094B013C72
:102980001A689369194208D1013093691942FCD140
:10299000136823548542F4D130BD0028FCD10320B4
:1029A0004042F9E77491002070B51C000A4B1500F5
:1029B0001860FFF71BFA002D03DB02212800FEF749
:1029C0004DF8002C03DB02212000FEF747F801211F
:1029D0000248FFF78FFF70BD749100203004002083
:1029E00010B5024800F00CF810BDC046449100201C
:1029F00010B508220149FFF729FE10BD44910020BF
:102A000030B5002589B004000922002101A80095F5
:102A1000FFF716FE0922002105A80495FFF710FE16
:102A20004B236A466846137004A90D2202F0D0FDBC
:102A30001521082220006944FFF708FE09B030BDC7
:102A4000F0B5982357464546DE464E466F4AE0B5F8
:102A5000D75880253C006D02883B9A4683B02C40B5
:102A60002F420FD001222321694B00205A54DA70E3
:102A7000684901F0BBFA8022674B92021A65674BE6
:102A80002C009A46FB0617D480235B011F4245D1D8
:102A90008023DB011F4200D08EE080231B021F42F7
:102AA00000D097E0BC4200D0ABE003B0F0BCBB4626
:102AB000B246A946A046F0BD544B9B6D9846002BEC
:102AC00027D0554B00249B460123994643460126B7
:102AD000B8461F0004E001347600E4B2202C17D081
:102AE0003742F8D05B469E654B466508A3436D00B0
:102AF000ED18474B6D019C466544280000F090FBA3
:102B0000002872D10134B743E4B27600002FE5D13A
:102B1000474680235B0154461F42B9D01C43002323
:102B20003C4A3A4D00212B609360D3603C4A3D48BB
:102B30009360D3603C4A9360D3603C4A9360D36017
:102B40003B4A9360D3603B4A9360D3603A4A9360B8
:102B5000D3603A4A9360D360394A9360D360394A6C
:102B60009360D360384A9360D360384A9360D360EF
:102B7000374A9360D360374A9360D360364A936094
:102B8000D360F0229200FFF75BFD344B344A002102
:102B90001A600020012201F0FFF980221E4B12036F
:102BA0001A65EB6CDB0300D472E702F0A5FB80230F
:102BB000DB011F4200D170E70122042100201C43E9
:102BC00001F05AF91022144B1A6580231B021F4290
:102BD00000D167E70122052100201C4301F04CF9D8
:102BE00080220D4B12011A655CE74B46AA8AA97830
:102BF00000200093002301F021FA280000F04CFA95
:102C000080E7210017487940FFF7DAF900001150FA
:102C1000004D002000001050003011501000010045
:102C200008001050404D00201000105018001050A7
:102C30002000105028001050300010503800105064
:102C400040001050480010505000105058001050D4
:102C500060001050680010507000105008510020A3
:102C600080011050B857001010B501210520FEF763
:102C70002FF810BD10B500220021024800F034FAF0
:102C800010BDC046204D00208022024B5202DA6463
:102C90007047C04600201150F0B5C64600B506008A
:102CA00000F0D4F90C23354D0520AB673449FEF70D
:102CB00029F840239846334C402200212000FFF79A
:102CC000BFFC43460127A383212100232E4A6770BE
:102CD000A260136063545F3161844146A187023969
:102CE00063542A4A2A496360E260A1620B60E2628F
:102CF000284A63629360D360274A20009360D360C0
:102D0000264A00219360D360254A40309360D36007
:102D1000244A9360D360244A9360D360234A93602B
:102D2000D360234A9360D360224A9360D360224ADF
:102D30009360D360214A9360D360214A9360D3604B
:102D4000204A9360D360204A9360D3601F4A936007
:102D5000D360F0229200FFF773FC1D4B1D4A300038
:102D60001A6080239B052F64EB6490231A4AEA5073
:102D7000FFF78AFF80BCB846F0BDC0460000115086
:102D8000412A0010004D0020840010500001105016
:102D9000800010500000105008001050100010501B
:102DA0001800105020001050280010503000105013
:102DB0003800105040001050480010505000105083
:102DC00058001050600010506800105070001050F3
:102DD000085100208001105010D001000B785B06D4
:102DE00002D14B78052B00D070478A78014B1A60CE
:102DF000FAE7C04600001150F0B5CE46474607231B
:102E000080B548798E780A790340C8787F21800799
:102E100031401B02F40913434F00820F9446914640
:102E20002A4D3A195201AA1896700126664056702A
:102E3000604600269383D6709077CA00012C29D073
:102E400023488446880162448446AC4460468260DC
:102E50001660002929D01F4AC900904641444160AC
:102E60003F223F3393434A46022A00D15B001A496E
:102E70003F190A687F01D3180B60184BED195340B6
:102E8000EA604A469006184380231B0618436B6885
:102E9000186010E012488446880162448446AC44BD
:102EA00060468262166000290AD1002364012D1950
:102EB0006B600C4BEB600120C0BCB946B046F0BD66
:102EC000064AC900904641444162C9E7004D0020CE
:102ED00084001050040010500851002000001050D1
:102EE000800010500001105000231C4A10B5936060
:102EF000D3601B4A00219360D3601A4A1A4893603A
:102F0000D3601A4A9360D360194A9360D360194A18
:102F10009360D360184A9360D360184A9360D3607B
:102F2000174A9360D360174A9360D360164A936040
:102F3000D360164A9360D360154A9360D360154AF4
:102F40009360D360144A9360D360F0229200FFF73D
:102F500077FB124B124A1A6010BDC0460000105099
:102F60000800105010001050404D00201800105064
:102F70002000105028001050300010503800105021
:102F80004000105048001050500010505800105091
:102F90006000105068001050700010500851002060
:102FA0008001105010B57F200C0020404000E40943
:102FB000110000191A00034B4001C01800F094F8EA
:102FC000012010BD004D00207F22130010B50B40E2
:102FD0000A420BD0C9098022580040180649400116
:102FE00040181201002100F05DF810BD02220348D4
:102FF000C909521A8266EEE7004D002000201150E8
:103000007F22100010B508400A4200D110BD0023F5
:10301000C90940004018044940010818002203492A
:10302000C37000F03FF8F1E7004D0020FFF7FFFF0D
:103030007F21C309034A9B00014010B59A580248FA
:10304000FEF7BEFF44040020CC57001080220D4B39
:10305000520410B51A600C4B0C491A6010008B68B2
:103060009843FBD10A4C9C2200212000FFF7E8FA8C
:103070008022002152010748FFF7E2FA0923636723
:1030800010BDC04600E0004000F0004000C000401D
:10309000000011500000105000230374438283820B
:1030A0008361704710B58368002901D01C682140F6
:1030B000002A11D08024E400114322420CD01A6867
:1030C00022420BD1074A0A401A60FFE7FFE7FFE7F9
:1030D000FFE7FFE7FFE78368196010BD8078FFF71F
:1030E000A7FFC046FFFBFFFFF0B5C646002300B5B3
:1030F000838201330374436804001E68838B8161FB
:103100001F1C934200D9171C8025BFB2D21B93B25B
:10311000E278ED0063823D43002A02D09025AD01A4
:103120003D4301204240E2706278002A51D0002BDA
:103130001DD1A023DB011D43354B1B6C354B3340A8
:103140008026B6051E436368A2681E6013685B058F
:103150005AD4314B2B401360FFE7FFE7FFE7FFE74F
:10316000FFE7FFE7A3681D6080BCB846F0BD802282
:1031700052011543264A126C920703D4A278D20951
:10318000012ADBD1A28B111C9A4200D9191C80277D
:103190008AB2FF009B1A90461743E2789BB2638283
:1031A000002A03D090274146BF010F4301214A4026
:1031B000E2706278002A19D0002B02D18023DB0153
:1031C0001F43164B3F043340A026F6053D431E43E4
:1031D000B9E73A00E068FFF739FAA3699C46802313
:1031E00067441B021D43A761638AA0E7E06842466B
:1031F000A1694030FFF72AFAA3694344A361802301
:103200001B021F43638AD7E7A078FFF711FFC04670
:1032100000001150FFFFFFAFFFFBFFFFFFFFFFDFCD
:10322000F0B5C64600B5067C0400002E00D1D3E000
:1032300083681A681D684378AD05AD0D002B51D128
:10324000838AEB189BB28382A18B8D4207D2002325
:10325000638263681B68300080BCB846F0BD62685A
:103260001268520002D58D4200D175E0638A002BAE
:10327000F1D062681F1C16688B4200D90F1C802594
:10328000BFB2DB1BE2789BB2ED0063823D43002AB4
:1032900002D09025AD013D4301214A40E2706278A1
:1032A000002A68D0002B2AD1A023DB011D434F4BFD
:1032B0001B6C4F4B33408026B6051E436368A268E3
:1032C0001E6013685B0500D58DE04A4B2B401360F0
:1032D000FFE7FFE7FFE7FFE7FFE7FFE7A368002659
:1032E0001D60B8E72A00C1688069FFF7AFF9A38ABB
:1032F000A269EB189BB25219A382A261A4E78022B3
:1033000052011543394A126C920703D4A278D209AC
:10331000012ACED1A28B111C9A423FD880278AB2B3
:10332000FF009B1A90461743E2789BB26382002A03
:103330002FD101214A40E2706278002A3ED0002B52
:1033400002D18023DB011F432B4B3F043340A026D7
:10335000F6053D431E43B1E7A26815686278AD01EA
:10336000AD0D002A1CD1EB18A3828D4200D37DE75E
:10337000002363826FE73A00A169E068FFF766F90E
:10338000A3699C46802367441B021D43A761638A8F
:1033900088E790274146BF010F43CAE7191CBDE7E4
:1033A000E1682A004031A069FFF750F9A38AA18B98
:1033B000EB18A382A3695B19A361D6E7E0684246D4
:1033C000A1694030FFF742F9A3694344A361802318
:1033D0001B021F43638AB2E77F238178074A0848AC
:1033E0001940FEF7EDFDA078FFF722FE0000115016
:1033F000FFFFFFAFFFFBFFFFFFFFFFDF44040020E5
:10340000EC570010024B5878431E9841C0B27047E9
:1034100088090020024B18784007C00F7047C0464B
:1034200088090020014B18787047C0468A91002017
:10343000F8B54746CE4680B52F4F05003B78002BA8
:1034400004D00120C0BCB946B046F8BD53220021CB
:103450002A48FFF7F5F82A4C2000FEF79BFC294B81
:103460001C60294C20001C30FEF7B0FC200001F04D
:103470003FFE264B264E1C60264B9846002B04D060
:10348000300000E000BF244B18604246002433782F
:10349000002A26D0214A90461F4A9146A34218D8B6
:1034A000E31ADBB2012B23D85A00D318DB004344C4
:1034B0001B68984733780134E4B25A1CA242EDDA13
:1034C0002800FFF7E9FB2800FFF7CEFB01233B7044
:1034D000B7E74A461268630094461B19DB00634451
:1034E000E6E701F083F801F0C3FA3378002BE7D068
:1034F00000231B68FFDEC0468A9100208809002057
:1035000040090020DC0900204C040020E0090020D4
:10351000899100200000000090070020AC580010A6
:10352000F0B5DE4657464E464546E0B58BB001F055
:103530009BFB00284ED0CB4B07AC9B46CA4B9A4610
:103540005B461D68EA69EFF3108172B61368002BC1
:10355000FCD0BFF35F8F29622800210001F03CFC02
:10356000EA692B6ABFF35F8F0021116083F3108833
:1035700000282FD06378082BE2D8BC4A9B00D35890
:103580009F466368002BDBD0A0689847D8E77F226E
:103590002179B54B0A405500C8095B191B18180062
:1035A00001263030C578B543C570C5780336B543BC
:1035B000C570002A00D123E1AD4ADB7C002A06D089
:1035C000AC4A1278934200D2E0E19B1ADBB2012BA5
:1035D00000D80AE10BB0F0BCBB46B246A946A046F3
:1035E000F0BD534601221B7801211343524613704C
:1035F00033235046D25C55468A43C254C25C0420F1
:103600008243EA540133EA5C27788A43EA54EA5C4D
:103610008243EA54002000F0A7FE602223791A407A
:10362000602A0DD0402A00D10CE1DB06DB0E012B15
:1036300000D172E1022B00D138E1002B00D127E14B
:1036400020780021FFF7C0FC80212078FFF7BCFC28
:1036500076E753461B78DB0700D471E7864B002BD7
:1036600000D16DE700E000BF6AE77F4B1A78D20710
:1036700000D465E7814A002A00D161E71878000785
:10368000C00F00E000BF5BE77A4D794B0026297838
:10369000002B00D1BAE07A4B7A4F9846B14216D847
:1036A000721AD2B2012A00D9B3E053009B18DB0092
:1036B000FB185B69002B14D02078984729780136D5
:1036C000F6B24B1C9E4200DD3AE7B142E8D94246D1
:1036D0001268730094469B19DB0063445B69002BFE
:1036E000EAD10136F6B24B1CB342D7DA28E7614D76
:1036F0005F4A002627782B78002A00D18CE0614AA7
:1037000090465F4A9146B34267D8F31ADBB2012B69
:1037100000D98AE05A00D318DB0043445B683800C4
:1037200098472B780136F6B25A1CB242EBDA4E4D6E
:10373000532200212800FEF783FF1022FF21E81CFE
:10374000FEF77EFF28002022FF211330FEF778FFCE
:1037500000F000FE4C4B002B00D1F1E600E000BF72
:10376000EEE6444D424A002627782B78002A5FD0A7
:10377000444A9046424A9146B34226D8F31ADBB2F5
:10378000012B52D85A00D318DB0043445B68380041
:1037900098472B780136F6B25A1CB242ECDA324D19
:1037A000532200212800FEF74BFF1022FF21E81CC6
:1037B000FEF746FF28002022FF211330FEF740FFCE
:1037C00000F0C8FD2379AB70BAE64A461268730070
:1037D00094469B19DB006344D8E74A46126873009D
:1037E00094469B19DB00634498E75A00D218254B96
:1037F000D2009B181D6962792078A368A8479FE6CC
:1038000062792078A36800F0C3FD99E6002900D111
:1038100096E600235B69FFDE380000F01FFF3800EA
:1038200001F05CF92B78002B81D000235B68FFDE70
:10383000380000F013FF380001F050F92B78002B0E
:10384000ADD0F2E71148002800D1F9E600F08CFD78
:103850000021380008AA00E000BF002800D06FE671
:10386000EEE6C046E009002088090020205800103C
:10387000000000008991002000000000000000000E
:1038800090070020AC58001000000000000000006D
:10389000202A00D110E1002A00D0D1E66379092B5B
:1038A00000D9CDE6BB4A9B00D3589F467023217AAE
:1038B0000B4200D0C4E6C80984460F330B405B00BE
:1038C000E818B54D6044C07C002D05D0B34D2D786F
:1038D000A84275D3401BC0B2012861D90025002A37
:1038E00000D0ADE602229146667948463200824316
:1038F000012A00D1F8E0002E00D0A1E65344634431
:103900003033DB7806AA9B07DB0F023213803800C6
:10391000022308A900F0C0FC12E6237A0F2B00D97D
:103920008EE69D4A5344DB78002A05D09B4A1278E4
:10393000934250D39B1ADBB2012B00D980E65D0085
:10394000EB18974DDB00ED18E86800F00DFD002145
:103950003800EB6808AA9847002800D0F0E56022FC
:10396000150023791D401A4200D069E663790A3BAD
:10397000012B00D964E600F0F7FC63790A2B00D133
:10398000DDE0380008A900F06FFCD9E55A00D21834
:10399000844BD2001B689B18002B00D02AE719E645
:1039A000450028187E4DC0002D18002A9AD0E868DE
:1039B00000F0DAFC00213800EB6808AA98474CE7D1
:1039C00045002818774DC0002D682D18002A89D091
:1039D000002DECD134E6734A5D00EB181568DB006E
:1039E000ED18002D00D12BE6AEE76B7806AA023267
:1039F00013703800012308A900F04EFCA0E5E08810
:103A0000030AC0B20F2B00D91AE667499A008A58F8
:103A1000974608A800F0AEFC3800A179FFF72AF914
:103A200002222B7813432B708AE5E388012B00D008
:103A300006E608222B78134352461370A1E7A279B9
:103A400002926B789A4207D06B78002B00D01DE170
:103A5000029B002B00D0ABE05346029A380008A925
:103A60005A7000F001FC6BE5E388012B00D0E7E51C
:103A700008222B789343DFE70220297806AB9A1CB3
:103A80008B068908DB0F01400B433FE7022B00D177
:103A9000DCE1464B002B00D1D2E500E000BF020084
:103AA000002A00D1CCE5D37891781B020B43380073
:103AB00008A900F0F1FBD0E6237A0F2B00D9BFE56F
:103AC000354A5344DB78002A05D0344A12789342B1
:103AD0002BD39B1ADBB2012B00D9B1E55D00EB18AB
:103AE0002F4DDB00ED1862E7E288002A08D153442D
:103AF000012E39D01E0066443036F3789B0727D557
:103B0000002D00D11CE5E86800F02EFCEB6808AA47
:103B1000002138009847002000F026FC342352464C
:103B2000D35CDB0700D50BE52BE71E4A5D00EB18E5
:103B30001568DB00ED18002D00D181E537E706ABF5
:103B40009A1C3800012308A9157000F0A5FBF7E4C2
:103B50003800FFF739FA0222F37813430122F37099
:103B6000F3781343F370CBE73032904663449844C4
:103B70004346DB789B07C3D53800FFF741FA43463D
:103B80004A46DB7893434246D370D378B343D3702D
:103B9000B6E7C0464458001000000000899100209C
:103BA000AC580010900700206C5800100000000076
:103BB000581EC0B2FCF7EAFB002800D140E543786C
:103BC0000393022B00D03BE50121C279060093113B
:103BD00052110B400A4012015B0113435246127806
:103BE0002F318A43134352460936B94637001370C2
:103BF000C37882781B021343C3180493049BBB420F
:103C000000D81BE101227B7800920B2B04D1FB78BA
:103C100000933B78FF187B78042B00D010E5049BC1
:103C20008C4ADB1B9BB298468B4B1B78002A7ED0BC
:103C30000022002501921EE0EB1ADBB2012B00D915
:103C400090E05E00F618854BF6009C4666444246BE
:103C500039004846B3689847082803D94346834249
:103C600000D382E07C4B01351B78EDB25A1C0195E4
:103C7000AA4200DAE4E4AB42DED9794B6E001B685D
:103C800076199C46F60005936644E0E73800FFF796
:103C90002BF9AB786F4A704D994600262B78002A95
:103CA00033D06F4A9046B34227D8F31ADAB2012ACA
:103CB00000D9BAE553009B18684ADB009446634478
:103CC0005B68380098472B780136F6B25A1CB2422E
:103CD000E9DA532200215046FEF7B2FC5346102287
:103CE000D81CFF21FEF7ACFC2022FF215D48FEF727
:103CF000A7FC53464A469A70AAE6424612687300E9
:103D000094469B19DB006344DAE7380000F0A6FC18
:103D1000380000F0E3FE2B78002BDAD085E5524B1B
:103D2000002B00D18CE400E000BF0200BBE642465D
:103D30003900484600F0A8FC45460600082801D98D
:103D4000854257D242463900484600F0D5FE4546E6
:103D50000600082801D9854269D23F4B1B78002B09
:103D600000D16DE400239B68FFDEB0460600009B97
:103D7000012B4FD0009B002B0FD00023B97805E01A
:103D8000D5700133009ADBB2934206D25A18D2B2F0
:103D90005244D078FF28F3D052E42B00320039008F
:103DA000304800F0A1FF2C4B019A1B78BF1901335A
:103DB000934200DB22E743E4FCF7E4FA122302001B
:103DC00008A9380000F068FA47E5284B002B00D11D
:103DD00036E400E000BF021E00D131E43800137861
:103DE00008A900F059FA38E52189FCF7D3FA021E38
:103DF000F4D125E4009B012B14D00025009B0195F4
:103E0000AB42BAD139003200124B164800F06CFFB9
:103E1000BF19F3E64246164B92689A42ADD1039B16
:103E20000093AAE70025039B01950093A5E71822BC
:103E300001259046094B0195984498E70D4B4F4654
:103E4000002B00D108E600E000BF05E6FCF79EFA73
:103E5000020025E60000000089910020AC58001007
:103E6000900700209B0900200000000000000000D7
:103E7000894600100000000030B587B005000C0036
:103E80000C2200216846FEF7DBFB6B461D705C7060
:103E9000042C4FD009D8022C34D0032C19D13C4B20
:103EA0001A78520758D407B030BD052C11D1384BC1
:103EB0001A78D207F7D504211A788A431A70354B3D
:103EC0001C68E269EFF3108172B61368002B09D108
:103ED000FBE7304B1C68E269EFF3108172B61368A0
:103EE000002BFCD0BFF35F8F21626946200001F0F8
:103EF00041F8E269236ABFF35F8F0021116083F309
:103F00001088D0E70121224B1A788A431A701A7858
:103F10000331A2431A7000225A701A788A431A7029
:103F20001C4B1C68E269EFF3108172B61368002B1A
:103F3000D8D1FBE7164B1A78D207B4D504211A78EA
:103F40000A431A70134B1C68E269EFF3108172B6D2
:103F50001368002BC6D1FBE704211A7803A88A4313
:103F60001A7000210C22FEF76BFB6B466A461D732C
:103F700005235373074B1C68E269EFF3108172B697
:103F80001368002BFCD0BFF35F8F216203A9ADE75C
:103F900088090020E009002070B584B001AC06005B
:103FA0000D000C2200212000FEF74AFB0123637064
:103FB0000D4B25711D682670EA69EFF3108372B608
:103FC00011680029FCD0BFF35F8F2B62210028000D
:103FD00000F0D0FFEA692B6ABFF35F8F0021116008
:103FE00083F3108804B070BDE0090020002330B5D1
:103FF00085B001AD6B8028700633082202A86B7073
:10400000FEF724FB0C4B1C68E269EFF3108372B6D9
:1040100011680029FCD0BFF35F8F236229002000C4
:1040200000F0A8FFE269236ABFF35F8F00211160EF
:1040300083F3108805B030BDE0090020F0B5C64616
:10404000804600B584B001AC0F00160000210822A4
:1040500020001D00FEF7F4FA434623700723637027
:104060000F4B65711D682771A660EA69EFF3108335
:1040700072B611680029FCD0BFF35F8F2B6221005C
:10408000280000F077FFEA692B6ABFF35F8F0021F9
:10409000116083F3108804B080BCB846F0BDC04600
:1040A000E0090020F0B54646D6464F468046C0B5EA
:1040B0000C0015001E00002A2ED070239946184BC4
:1040C00000279A466378052B0FD1E1788907890F7D
:1040D000B1420AD14A46A3781A4206D1534620007B
:1040E000997800F0C5FD002805D10020E0BCBA4653
:1040F000B146A846F0BD21004046FEF77DFE0028EF
:10410000F3D0A378DA09012A08D0089A137023782B
:104110000137E418AF42D5DB0120E7E7099AF5E75C
:1041200088090020702270B58B7805000C001A42B7
:1041300001D0002070BD064B2000997800F098FD5A
:104140000028F6D021002800FEF756FEF2E7C04610
:104150008809002070B57F240C406300144CC90905
:10416000E41864183034E378DB07DD0F002B18D136
:10417000E3785B0701D5280070BD01210D4E49424F
:10418000306801F045FAE378DB07DD0F002B0AD138
:10419000E3785B0708D40422E37801251343E37036
:1041A00002E00025E7E70025306801F019FAE2E7B0
:1041B00088090020DC09002070B50C0001210F4D9A
:1041C0004942286801F024FA7F2121404B000C4924
:1041D000E409C91809193031CB780024DB0708D469
:1041E000CB785B07DC0F002B03DA0422CB789343F8
:1041F000CB70286801F0F4F9200070BDDC090020C4
:104200008809002070B57F250F4C0D406D006419A2
:104210000600C80924183034E5780020ED0700D5E1
:1042200070BD0125E0782843E0703000FEF7BAFE4B
:104230000028F5D10122E3789343E370E378033259
:104240009343E370ECE7C046880900207F22CB0946
:104250000A40044952008918C9183031C878C0078B
:10426000C00F70478809002070B50A4E0500300065
:1042700008220C00FEF7EAF900237F21F360227880
:10428000B36091425B412800D90100220023FFF76F
:10429000B9FF70BDEC080020F8B5CE464746914600
:1042A0002A4E80B50822070030000D009846FEF720
:1042B000CDF94B46B3600023F381EC79A979240250
:1042C0000C43231C444500D943469AB29046B3811F
:1042D000002C13D0002A1FD04B46002B34D0131CC7
:1042E000402A1FD89BB2984633787F2B20D80021D4
:1042F000174A43463800FFF785FF09E07F222B78F5
:1043000038009A42644100230022E101FFF77AFF5E
:10431000C0BCB946B046F8BD33787F2B11D9802197
:104320000022E6E740239BB2984633787F2BDED904
:10433000074C424649462000FEF788F980212200BA
:10434000D7E700210022D4E70020E1E7EC080020B5
:104350004809002010B5142200210248FEF770F928
:1043600010BDC046EC080020014B18617047C046E4
:10437000EC08002010B5054C010008222000FEF7D3
:1043800065F90023A360E36010BDC046EC0800207F
:10439000F8B53B4C1D0023780600DA09C9098A42AA
:1043A00013D00020002D00D0F8BD364B002B03D0D9
:1043B00021003000FEF712FD2369002B44D02200BB
:1043C0000221300098470120EEE77F2B06D8A06835
:1043D000002837D02A002C49FEF738F9A368E28973
:1043E00059195219E38892B2E281A160934214D024
:1043F0003F2D12D9A589A81A071C80B240282FD8B2
:104400002378BFB27F2B2DD80021AA4235D01E4A77
:104410003B003000FFF7F6FEC6E72369002B05D00E
:10442000220001213000984700280FD07F22002170
:10443000237830009A42494100230022C901FFF746
:10444000E1FEB1E70020AFE70120ADE70021300039
:10445000FEF7BAFD30008021FEF7B6FD0120A3E78C
:104460004027CDE7AA4207D0074C3A002000FEF7CC
:10447000EDF880212200CBE780210022C8E7C0466A
:10448000EC080020DD2D00104809002010B50400C4
:10449000FEF7B8FF002801D1002010BDFEF7BAFFDB
:1044A0000028F9D15930FF304443034800190379FB
:1044B00001201840F1E7C04694070020AC235B00C0
:1044C000584310B5024B1030C01800F05FFC10BD0F
:1044D00094070020F0B5AC256D0045432C00C6467E
:1044E000174F1034E41900B5200092B200F0C2FC5E
:1044F0000600200000F062FC3F2803D8300080BC9A
:10450000B846F0BD7B190020D9789846FFF722FE07
:104510000028F3D0200000F051FC3F2809D92A00E0
:104520004346D832D978D21940230020FFF76AFEDB
:10453000E4E743460020D978FFF73EFEDEE7C046B9
:1045400094070020F8B50400FEF75CFF002801D1B5
:104550000020F8BDFEF75EFF0028F9D1AC20400036
:1045600044432500134E2C35AD19280000F00EFCF5
:104570000028EDD037190020B978FFF7EBFD0028AF
:10458000E6D01934FF34A41921002800402200F09D
:1045900071FCB978051E08D0030022000020FFF747
:1045A00031FE0028D4D02800D3E70020FFF704FE16
:1045B000CEE7C0469407002070B5AC2464004443A5
:1045C000094B2C34E418050092B2200000F010FDD5
:1045D0000600200000F0DAFB3F2801D8300070BD53
:1045E0002800FFF7AFFFF9E794070020AC2270B571
:1045F000184C82B0002120005200FEF721F8FF2362
:104600006371154B0025E38001260823210020005B
:1046100026812373402248310095073B103000F07B
:1046200079FB0096210020002600012340228831DA
:10463000C8362C3000F06EFB3000FDF7ABFBA662F5
:104640002600D03630006562FDF7A4FB2664656461
:1046500002B070BD9407002000C2FFFF10B5094CE6
:10466000052200212000FDF7EBFF20002C34103044
:1046700000F03EFD200000F03BFD0121200000F095
:104680005DFD10BD94070020F0B54B79060083B0A6
:10469000022B02D18B79022B03D00025280003B016
:1046A000F0BD2F4FBB78002BF7D18B7809253B70DD
:1046B0000C780C196378242B0BD1082A02D80FE050
:1046C000AA420DD32378E418ED186378ADB2242BF9
:1046D000F6D0052B1FD0042B02D163790A2B2DD0E5
:1046E000204C200000F06AFB3F28D7D92600103E5E
:1046F0000020F178FFF72EFD0028CFD0200000F039
:104700005DFB3F2815D922004023F178C8320020F4
:10471000FFF778FDC2E721003000FFF703FD002816
:10472000BBD0A3787B702378ED18E4186378ADB222
:10473000D1E7F1780020FFF73FFDAFE70A4B27787C
:10474000019301330093022202233000E119FFF7A5
:10475000A9FC0028A1D00E35ED19ADB2C0E7C046C6
:1047600094070020A407002096070020F8B56023D6
:1047700014001278050013400020202B12D12F4A7C
:104780006379277916781B023B439E420AD16378EE
:10479000222B27D007D8202B17D0212B02D100297C
:1047A0003DD00120F8BD232BFCD100293FD00229A8
:1047B000F7D1234B002BF4D0E178A3780902002035
:1047C000194300E000BF0120ECE7002927D00229AF
:1047D000E7D11C4B002BE4D00020911DFCF738F8EA
:1047E0000120DFE7002922D00229DAD101252E009D
:1047F000A378E478013924021C43147126402C323A
:104800001000714000F09AFC0F4B002BC9D06208D9
:10481000002031002A4000E000BF0120C2E707234A
:1048200021002800094AFFF737FD0120BAE72100DF
:104830002800FFF719FD0120B4E7C04694070020C7
:104840000000000051080010000000009A0700203E
:10485000F8B557464E464546DE46E0B5484F8046D9
:10486000FA780C001E008A4263D19AB210233D00F0
:104870009B46D835BB442900584600F0B9FB414B54
:10488000D946002B18D07B79D946FF2B14D0002EA7
:1048900012D0AA19924603E0013555450CD07B7918
:1048A0002A789A42F8D1484600F080FA0028F3D1DD
:1048B000797900E000BFEFE7334B002B04D0484686
:1048C00000F074FA002851D0484600F077FA3F28EB
:1048D00034D84A46103A9378A34207D001242000E6
:1048E000F0BCBB46B246A946A046F8BD274B002BFC
:1048F00002D0002000E000BF0020FFF723FE0028C8
:10490000ECD1234D280000F041FA0028E6D1002E1A
:10491000E4D0B306E2D12C3D4046A978FFF71AFC5B
:10492000041EDBD0002300224046A978FFF76AFC72
:10493000D5E7BB788B42D9D00024D0E74D46103D57
:104940000020E978FFF706FC002801D1AB78C3E727
:10495000484600F033FA3F280BD94A46402300204E
:10496000E978C832FFF74EFCAB78B5E700E000BF4E
:10497000AAE70020E978FFF71FFCAB78ACE7C04658
:10498000940700200000000000000000000000006C
:10499000C0070020044B10B55843044B0430C01826
:1049A00000F0F4F910BDC046CC400000AC0A002075
:1049B000F0B5C646124C134F4443261DF61900B5F8
:1049C000300092B200F056FA3B19050099780020A9
:1049D0009846FFF73BFC002803D0280080BCB8466F
:1049E000F0BD300000F0EAF93F28F6D9064B002070
:1049F000E2184346D21999784023FFF703FCECE70D
:104A0000CC400000AC0A00204C400000F0B5154C32
:104A1000C64644432500144F2035ED1900B5280043
:104A200092B200F0E5FA3B1906005978002098464A
:104A3000FFF70CFC002803D0300080BCB846F0BD66
:104A40000A4B40229C466444E4192100280000F0EF
:104A500011FA031EF0D04246002051782200FFF7E1
:104A6000D1FBE9E7CC400000AC0A00208C400000FC
:104A700070B5154C82B000212000144A8026FDF745
:104A8000DFFD00252100B601320001233C31201D4D
:104A9000009500F03FF920000D4B3200E118009521
:104AA0000123203000F036F90A4BE6183000FDF7FC
:104AB00071F9094BE661E6183000A561FDF76AF966
:104AC0006663A56302B070BDAC0A0020CC40000054
:104AD0003C2000003C4000004440000010B5054C64
:104AE0000023200008C000F003FB2000203000F06D
:104AF000FFFA10BDAC0A0020F0B5C64600B54B79F0
:104B000007000E0082B0FF2B04D0002002B080BC52
:104B1000B846F0BD284D6B78AC782343F5D18B783F
:104B20000C782B7008790C19002823D06378052B9A
:104B300008D0A21804E0217864186178052901D012
:104B40009442F8D31D4B0200984601930133009321
:104B5000210002233800FFF7A5FA0028D5D03279CA
:104B6000D3009B1AE4184346597800291AD1697872
:104B7000002902D1A01B80B2C8E70020FFF766FB26
:104B80000028F7D128000E4B4022EF1839002030C2
:104B900000F070F9031EEDD03A0069780020FFF7AD
:104BA00031FBE7E7074A402338004244FFF72AFB7E
:104BB0000028DCD1A9E7C046AC0A0020AD0A0020DD
:104BC0008C4000004B40000070B5204C0800A278DB
:104BD0008A420BD06178814206D10020FFF736FB74
:104BE000002823D0012070BD0020FCE79AB2184BAA
:104BF000201DE11800F0FCF9164B002B02D000201C
:104C000000E000BF0020A178FFF720FB0028E9D1D9
:104C1000201D00F0D3F83F28E4D90D4B0020E21806
:104C2000A1784023FFF7EEFA0120DCE720000A4BD1
:104C30004022E5182900203000F01CF9031ED1D0D5
:104C40002A0061780020FFF7DDFACBE7AC0A0020EC
:104C50004C400000000000008C40000010B5002017
:104C6000FEF7E6FB10BDC04610B5FEF7DBFB10BD3E
:104C7000072210B544790379224012021A43C378FF
:104C80009B079B0F022B05D0032B15D00020012B77
:104C900008D010BD02291CD000204023934240417F
:104CA000C0B2F6E702394B4259410D4B9C46614474
:104CB00091424041C0B2ECE702394B425941F023E6
:104CC000002049429B001940403191424041C0B20E
:104CD000DFE7044B9C46624453425A41D0B2D8E7C6
:104CE000FF03000000FEFFFFF0B5002A11D00024F2
:104CF0007F274D78052D06D13D008E7835406D001B
:104D0000F6094519AB550D786419A4B24919A242A8
:104D1000EFD8F0BDF0B5C64600B5150006AA1E00D6
:104D20001378802204000F009846120295422AD878
:104D30004069002803D00121494200F069FCA069C4
:104D4000002803D00121494200F062FC4346A580BF
:104D50006D00ADB223726B1EA381002360696D42AA
:104D6000E3812760E68065812382002801D000F07E
:104D700037FCA0690124002801D000F031FC20009C
:104D800080BCB846F0BD0024F9E7C046C189028A5C
:104D90008B1A9BB2914202D242899B1A9BB28288A3
:104DA000101C9A4200D9181C80B270470300C089B9
:104DB0001B8AC01A43425841C0B2704710B5C4891B
:104DC000018A8388621A92B28C4202D24089121AF6
:104DD00092B2981A80B210BD70B5040080690E00BE
:104DE000002803D00121494200F012FCE189228A07
:104DF00088B28D1A93B2ADB2914202D26289AD1AD5
:104E0000ADB2A288AA4207D2904225D26189511838
:104E1000411A89B215002182002D02D122E09B1A8D
:104E20009BB29A42FBD9E288216853433000C918EB
:104E3000FDF70CFC228A0125531C9BB29A4214D91F
:104E4000002362899B189BB2A0692382002801D0AD
:104E500000F0C6FB280070BD811AA58989B28D4279
:104E6000D8D2D3E70025238A9BB2A2899A42EBD2FB
:104E7000E7E7C046F0B54F464646D646050080698E
:104E800088469146C0B5002803D00121494200F070
:104E9000BFFBEA892B8A91B2D61A9CB2B6B29A426B
:104EA00002D26B89F61AB6B2AF88B74209D2B942BC
:104EB00054D26B89FB18CB1A9BB23E002B822C8AF2
:104EC000A4B2002E50D04B46B14545D89EB2A74261
:104ED00003D8E41BA4B2A742FBD9EB88381B190006
:104EE00099462B6861439C4680B26144864225D92D
:104EF0004B46584383B21A0040469A46FDF7A6FB3C
:104F00004B464046F71BE4195C432968A2B2504463
:104F1000FDF79CFB2A8A93199BB29A4218D96A8999
:104F20009B189BB2A8692B82002801D000F058FB87
:104F30003000E0BCBA46B146A846F0BD4A464046FD
:104F40007243FDF783FB2A8A93199BB29A42E6D8F3
:104F5000AA899A42E6D2E2E7331CB7E7CB1BAA89BB
:104F60009BB29A42A9D2A4E72B8AAA899BB29A4201
:104F7000D8D2D4E7F8B5040040690E00002803D069
:104F80000121494200F044FBE289218A95B2531A7B
:104F90009BB2914202D962899B1A9BB2A2889A4223
:104FA00021D02B00954203D39B1A9BB29A42FBD986
:104FB000E28821685343C8183100FDF747FB6B1C9A
:104FC0009BB29D420BD962899B189BB260690127F5
:104FD000E381002801D000F003FB3800F8BDA2896E
:104FE0009A42F3D2EFE7277A002FDAD1F5E7C046ED
:104FF000F8B545464E46DE4657468846E0B50500BC
:10500000161E5AD04069002803D00121494200F001
:10501000FFFAEF892B7A298ABFB289B2002B3BD1E4
:105020007A1AAB8892B28F4202D26989521A92B22E
:105030009A1A111C92B2B24253D8EA888EB29246A2
:10504000F21A92B291463C009F4203D3E41AA4B2F2
:105050009C42FBD250462A68604394461B1B9BB27D
:10506000524660449E422AD841467243FDF7EEFA0A
:10507000F3199BB29F421CD8AA899A4219D3686936
:10508000EB81002801D000F0ABFA3000F0BCBB4649
:10509000B246A946A046F8BDEA88AB8892469E4231
:1050A00021D3F61A56430022B0440F001E00914649
:1050B000C9E76A899B189BB2E1E70026E5E75343FD
:1050C0009BB21A0041469B46FDF7C0FA22005346A8
:1050D00041464A445A43286892B25944FDF7B6FA09
:1050E000C6E7311CA9E7F21A92B29146ABE7C04677
:1050F00010B504004069002803D00121494200F0A6
:1051000087FAA069002803D00121494200F080FA03
:105110000023E3812382A38860695B009BB25A1E4F
:105120005B42A2816381002801D000F059FAA06996
:10513000002801D000F054FA012010BD70B5040021
:1051400040690D00002803D00121494200F060FAB7
:10515000A069002803D00121494200F059FA606992
:105160002572002801D000F03BFAA069002801D088
:1051700000F036FA012070BD80210B4A4902136D00
:105180000B42FCD0092304215367084A7733D150DE
:10519000074B00201A68074B0021DA67064B1A6894
:1051A000064B1A647047C046000011500030115081
:1051B000FC4C0020004001402451002000C0014070
:1051C000F0B5C64600B5102084B0FBF75FFC082898
:1051D00069D0364B364FDB6F364E3B60364B012283
:1051E0001B6C01210F203360FBF75AFC02210F20BA
:1051F000FBF780FC0822314B03211B680F205A402B
:105200001F2313402E4A1360FBF762FC0222042185
:105210002C4BDA677E3299502B4B743A5A671B6DD0
:105220001B079B0F012B3BD1FCF73AF98046FCF79B
:10523000D7FAFA2204000D000023920012196B41E4
:10524000994211D80ED001210291002101911F49EC
:1052500040460091FCF728F9002809DB04B080BC27
:10526000B846F0BD9042EED901225242D317EAE788
:10527000FA2000218000FCF7BDFA8021124A490281
:10528000136D0B42FCD0092304215367104A773376
:10529000D1503A68054BDA673268074B1A64DDE78C
:1052A000FCF7A6FEC0E7FCF7A3FE92E70040014032
:1052B000FC4C00202451002000C001407C400140F3
:1052C0007C50014000201150000011507951001015
:1052D00000301150074B10B51B6D1B079B0F03D1FE
:1052E000FA200021800010BDFFF76AFF0020002196
:1052F000F9E7C0460000115070B584B0FBF7B8FC68
:10530000012801D004B070BDFCF7CAF80600FCF714
:1053100067FAFA2204000D000023920012196B4173
:10532000994216D813D001210291002101910B4915
:1053300030000091FCF7B8F80028E3DA03220849AE
:105340000B6D9B081A42FBD0FFF73AFFDAE7904259
:10535000E9D901225242D317E5E7C046D5520010E1
:105360000000115010B51920FBF7D6FBD023802286
:10537000E1211B0692045A620448054B0022186082
:1053800049020123FDF710FB10BDC0460040034059
:1053900070910020F0B5D6464F4646468846C0B5C7
:1053A00005240600FBF7D6FB43461F791C57284B04
:1053B0008146F01843425841264B9A4683009C464A
:1053C00053466246985801222023BA40DB1B013A1B
:1053D000002C32DB9C422DDCA2401500104229D16A
:1053E000002F1AD043465A781978120211434246C8
:1053F0009B78D2781B040B4312061A439046002276
:1054000041465300C95A4B0B00D1091913191233E5
:105410009B00013299519742F2D8534662460543A8
:105420009D504846FBF7A2FB2000E0BCBA46B146BF
:10543000A846F0BD0848FCF7C3FD002B02DAF9E7E7
:10544000013BF7D315009D401C000542F8D1C7E78A
:105450000000D0AFA40A0020F4580010F0B54E466A
:105460004546DE4657468A464900E0B50D0080466F
:105470005544ED0045448946290009AC2678DC31C5
:10548000741EA64108687442844614481F26834649
:1054900026405E44052B0CD9A0201F274005D83597
:1054A000540104430532053B0C603A402E60052B45
:1054B000F6D849465144C900414452019B06134362
:1054C0000A000800DC3213606346D83006601360BF
:1054D000F0BCBB46B246A946A046F0BD80E0000045
:1054E000F0B501258D400468AC434D0004606C1894
:1054F000E40004192600C836002B2AD01F68DC34CB
:1055000037605F6877609F68DB68B76023606D18FD
:10551000EB001D008024D035451964012C43802503
:105520002D0625602560114C0D1D8C4084600124E2
:105530002700AF403D0008318C401F2106680A401B
:105540003543056005682C430460C018D8300260FC
:10555000F0BD80277F023760F8277F027760C02781
:10556000DC343F03B7602360D1E7C046010101018D
:1055700010B583070AD00300032102E001330B4278
:1055800005D01A78002AF9D1181A10BD030019683D
:105590000C4A0D4C8A188A4322420FD15968094A95
:1055A00004338A188A43224208D15968054A0433D1
:1055B0008A188A432242F1D000E001331A78002A87
:1055C000FBD1E1E7FFFEFEFE80808080F8B5C0469B
:1055D00001B40248844601BC604700BF8D02002030
:1055E00001B40248844601BC604700BFED010020C1
:1055F00001B40248844601BC604700BF510300204B
:1056000001B40248844601BC604700BF0901002084
:1056100001B40248844601BC604700BF4D01002030
:1056200001B40248844601BC604700BFC1000020AD
:1056300052617370626572727920506900000000D7
:105640005069636F70726F626500000009040000AA
:1056500009026200030100A032080B0002020200EE
:1056600000090400000102020000052400200105D9
:10567000240100010424020205240600010705811B
:105680000340001009040100020A0000000705029F
:1056900002400000070583024000000904020002E6
:1056A000FF000000070504024000000705850240D6
:1056B0000000000012011001000000408A2E0400CA
:1056C0000001010203010000D056001010FF00008D
:1056D00081F0A08027A0A0800170441800F02080F5
:1056E000000080F0A08027A001584C102080090005
:1056F0004E6F207370696E6C6F636B73206172659F
:1057000020617661696C61626C6500004861726459
:105710007761726520616C61726D20256420616C17
:10572000726561647920636C61696D656400000075
:105730000A2A2A2A2050414E4943202A2A2A0A00AE
:105740000A0000004861726420617373657274001E
:1057500052656C6561736500626F6F74325F77329A
:105760003571303830000000312E342E300000000A
:105770007069636F000000007069636F70726F6220
:10578000650000004175672020362032303232003B
:1057900006005250BBFF3CB6705700100600525036
:1057A000E182887F5857001006005250D3F07542AE
:1057B000505700100D0A0000556E68616E646C65EC
:1057C000642049525120307825780A0065702025E0
:1057D000642025732077617320616C726561647940
:1057E00020617661696C61626C65000043616E27BF
:1057F0007420636F6E74696E7565207866657220BB
:105800006F6E20696E61637469766520657020250E
:1058100064202573000000006F757400696E00003D
:105820004035001062370010EE3600108836001048
:105830006A36001052360010E23500108E35001026
:1058400082350010783A0010683A00104036001097
:105850002A3A001040360010123A0010FE390010AB
:1058600040360010EA3900103E3A00104036001071
:10587000B83D00108C3A0010E83D00104036001092
:1058800040360010CA3D00108C3A0010403600101F
:1058900040360010403600104036001040360010F0
:1058A00040360010403600101E3D0010ED4500103F
:1058B0005D460010894600106D47001051480010E9
:1058C00000000000714A0010DD4A0010F94A001083
:1058D00000000000C94B0010000000004C454400CF
:1058E0000900525000000002DC580010080052501D
:1058F000120000004E6F2070726F6772616D20732E
:08590000706163650000000006
:0859080068FCFF7F01000000B4
:10591000B4020010A80200109C0200109057001062
:10592000900200109C570010A8570010E05800107B
:04593000EC5800101F
:10593400D02330B500251B0600245D5706E003681C
:10594400BFF35F8F1C6081F3108820BF0268EFF300
:10595400108172B61368002BFCD0BFF35F8F0379FC
:105964007F2BECD905710368BFF35F8F00221A60A7
:1059740081F3108830BDC04603000068EFF3108C3B
:1059840072B60268002AFCD0BFF35F8F04229A56D5
:10599400002A0BDB00290FD000200A601B68BFF32C
:1059A4005F8F00221A608CF310887047D022120691
:1059B400126801201A71F1E70020EFE7F0B5C6463E
:1059C40000B582B00C00070000F006F9FA220023AB
:1059D4000090019120009200002100F0F5F8009A57
:1059E400019B14001D0024184D41AB422FD82BD02D
:1059F400D0231B061B68002698460BE03B68BFF3C8
:105A04005F8F1E6081F310882000290000F0ECF8FD
:105A1400002820D13A68EFF3108172B61368002B86
:105A2400FCD0BFF35F8F3B797F2BE7D943463B71B3
:105A34003B68BFF35F8F00221A6081F31088012056
:105A440002B080BCB846F0BD009BA342D0D901246B
:105A54006442E517CCE70020F2E7C0460268EFF3A2
:105A6400108172B61368002BFCD0BFF35F8FFF2345
:105A740003710368BFF35F8F00221A6081F31088FB
:105A840040BF7047084810B50378002B0AD1802323
:105A94000649074A5B051C68CC5004339342FAD18B
:105AA4000123037010BDC0468B910020884B001069
:105AB4000001001010B5024B0133984710BDC046D9
:105AC400884B0020034B1A68C0239B009343024A6F
